:040000006F0010136A
:10000400000000000000000090000020FC0300201D
:10001400A9BDF9F5900000200000000000000000D8
:10002400900000209000002000000000000000006C
:10003400900000200000000090000020000000005C
:1000440092000020900000209000002090000020EA
:10005400900000209000002090000020000000008C
:1000640090000020900000209000002090000020CC
:1000740090000020900000209000002090000020BC
:1000840090000020900000209000002090000020AC
:1000940001A03727004083476700858BB1C385479C
:1000A4002303F7008145171500000345A588A946D9
:1000B40013065018971000E0E78080CA1715000057
:1000C4000345458705051375F50F9717000023832E
:1000D400A786A14513050503971000E0E78020F7E4
:1000E4007300203073270080218B971700009387BB
:1000F400A78419CB732700809716000023AEE682ED
:1001040098435D9B7310078001000100371700407E
:10011400930670052300D704930680FA2300D704BE
:10012400010001008346B70493F6F60DA305D70436
:1001340023000704F32600809843218B558F731006
:100144000780170700002329077E010001001377A9
:100154000502630B071273270080218B19CB7327C9
:1001640000809706000023A9E67C98435D9B7310EA
:100174000780010001003717004093067005230033
:10018400D704930680FA2300D70401000100B706C0
:1001940014007D89558D08C701000100010001008C
:1001A40023000704F32600809843218B558F731096
:1001B4000780170700002321077801000100732737
:1001C4000080218B19CB732700809706000023A59C
:1001D400E67698435D9B7310078001000100371792
:1001E4000040930670052300D704930680FA230089
:1001F400D7040100010001000100B72600401306E6
:100204001005A383C68023000704F32600809843C7
:10021400218B558F7310078017070000232E07705A
:100224000100010073270080218B19CB7327008004
:100234009706000023A2E67098435D9B7310078025
:100244000100010037170040930670052300D7040E
:10025400930680FA2300D704010001008346B70403
:1002640093E60608A305D704230007047327008038
:100274009C43A18BD98F739007809707000023AD0F
:10028400076A0100010082801377050445CB7327B8
:100294000080218B19CB732700809706000023ADC3
:1002A400E66898435D9B73100780010001003717CF
:1002B4000040930670052300D704930680FA2300B8
:1002C400D70401000100B7061400938606047D8953
:1002D400558D08C701000100010001002300070437
:1002E400F32600809843218B558F731007801707DE
:1002F4000000232307640100010073270080218B81
:1003040019CB732700809706000023A7E662984361
:100314005D9B7310078001000100371700409306AE
:1003240070052300D704930680FA2300D704010044
:100334000100B726004013062005E1B573270080AD
:10034400218B19CB732700809706000023A6E65E55
:1003540098435D9B7310078001000100371700402C
:10036400930670052300D704930680FA2300D7046C
:1003740001000100144793E6060C14C769B5411146
:10038400814601468145114506C61D2CF327008090
:10039400A18B970600009386265A99CBF3270080F9
:1003A40017070000232AF7589C42DD9B73900780AF
:1003B40001000100B7170040130770052380E7040C
:1003C400130780FA2380E7040100010003C76704D0
:1003D400136717002383E70423800704732700802F
:1003E4009C42A18BD98F739007809707000023A5A7
:1003F400075401000100B240410182808146014658
:1004040081451145752AF3270080A18B1707000049
:100414001307875299CBF32700809706000023AD7A
:10042400F6501C43DD9B7390078001000100B71751
:100434000040930670052380D704930680FA238036
:10044400D70401000100FD562396D7022380070438
:10045400F32600801C43A18BD58F739007809707E8
:10046400000023AB074C01000100F3270080A18B9F
:1004740099CBF32700809706000023AFF64A1C436C
:10048400DD9B7390078001000100B71700409306BD
:1004940070052380D704930680FA2380D7040100D3
:1004A400010083C6670493E616002383D7042380E0
:1004B4000704F32600801C43A18BD58F739007801B
:1004C4009707000023AA07460100010001A0BD47C9
:1004D4003305F50201007D1575FD8280411122C4AA
:1004E40026C206C6AA84014463179400B24022447B
:1004F40092444101828005041305803E4204C13FB9
:100504004180DDB72303048015472303E480010001
:100514002302A480828083076480E3CE07FE230342
:100524000480828083076480E3CE07FE0345448011
:10053400828083076480E3CE07FE2302A480828046
:10054400411126C44AC24EC006C61377F50BAD4707
:10055400AA892E8995446306F70019456537653FD6
:100564008D444E854537FD59FD1463983401B240DE
:10057400A24412498249410182801355090113752D
:10058400F50F453F2209CDB7011126CC06CEB7049D
:10059400080051371545BD37713769372AC6A53F5D
:1005A40032459377150089EB136515001375F50F24
:1005B400F240E24405618280FD14E9FC0145CDBFAF
:1005C400397126DC4ADA4ED852D656D45AD25ED085
:1005D40006DE62CE66CCB7E700E07D5783AA07004B
:1005E40022C603AA470023A0E71823A2E718B717D7
:1005F4000040130770052380E704130780FA238063
:10060400E70483C74704930B75FFB684E20793FBA3
:10061400FB0F8546AA892E8B328937240040E18757
:10062400015763FA76016308D5008946130700026F
:100634006313D5000157D98F93F7F70FB71C004008
:100644002382FC0411472303E4801305F00F5D3D6E
:10065400094CD135636D7C11B7050700DA953787EE
:100664000700795563F2E504B3879500636EF702DA
:10067400370B0800A94733EB65016399F90689E450
:100684008144513D26850DA0DA850945553D05096E
:100694000345F9FFFD14050B693D81C49377FB0FF6
:1006A400FDF7DD3569FD7D55B7170040130770056B
:1006B4002380E704130780FA2380E70403C7470471
:1006C400418B2382E704F250B7E700E023A05711DF
:1006D40023A24711E25432445259C259325AA25AFF
:1006E400125B825B724CE24C21618280A547639568
:1006F400F90685691309F00FB3069900B3742B0149
:10070400B6941349F9FFB3749900856B3379690181
:10071400416B9387F9FFB3F7270199E363FC340135
:1007240093D94900C147E3E637FF99BF0569C16919
:100734007D19D9B71305800D63886901130500027B
:100744006384790113051008CA85DD3B353D21DD3D
:100754004E99B3843441D9B7DA852D45D533CA943B
:10076400E30099F205097D3BA30FA9FED5BF93874A
:10077400F9FF93F7F70F6361FC0C83C71C0413079D
:100784003008631FF70437070800636BEB04B307F3
:100794009B00B706100063F5D704334BEB00894781
:1007A4006393F9068980D549E38C04ECDA8509451D
:1007B400413B11090327C9FF91472320E480030724
:1007C4006480E34E07FE23033481FD17EDFBFD1423
:1007D400110B81C49377FB0FE9FF7D3371F5E1B50C
:1007E400B717004003C75704B70708001377070279
:1007F40019E3B78707007955E378FBEA33079B00D1
:10080400E3FFE7F855B58547E382F9F2DA852D452C
:10081400053B9389F4FFE38504E6293393F7390014
:1008240091EB832604800327090093074900E39A88
:10083400E6E43E89CE84F1BFB5476396F90013051B
:10084400900BC93135BDB1471305B00AE38BF9FEEE
:1008540099476391F904B7050800B365BB002D45BA
:10086400C53181448D4BA149753963967401832741
:1008740004802320F9008504E39834FF832704804F
:1008840013172B01635507002312F900D5BB23224C
:10089400F900FDB39D476399F90281451305B0043E
:1008A4004531BD442320090023220900FD599D3907
:1008B40093F77400CA9703C70700FD14398D23808A
:1008C400A700E39634FF6DBBA1476392F9046D3929
:1008D4008144630D0B008D479304C0036308FB0040
:1008E4009304000563048B01930440041375C50746
:1008F400E30895D81945393139390545213126851B
:100904000D3909453D314931E31C05D669BB914791
:100914006399F90013056006F536F53E1305900951
:0C0924000DB7E38F09D4F154A9BB00000B
:10093000971100209381018017610020130181EC41
:100940001305400097F5FF1F9385C56B1706002020
:10095000130606FE63FAC5008322050023A0550096
:1009600011059105E3EAC5FE171500001305C581C1
:10097000970500209385C5FB17060020130686FB0C
:1009800063FAC5008322050023A0550011059105D7
:10099000E3EAC5FE170500201305C5F9938581819B
:1009A0006377B500232005001105E36DB5FEFD4218
:1009B000739002BC8D42739042809302800873A0B2
:1009C000023097F2FF1F9382E26393E2320073904A
:1009D0005230970200009382E20373901234730046
:1009E00020303785930341111305057006C6DD23BA
:1009F000372700408347270093E717002301F700BC
:100A0000B240B7E700E0416723A0E71041018280D0
:100A10004111A9471305800406C617070020230BC0
:100A2000F7F097F0FF1FE780206C3717004083270F
:100A3000870A8945414593E707022324F70A452998
:100A40008D45130500026521C12B11291126513F47
:100A50009545170500001305656DC52B01A00147DD
:100A6000B71700408966116803A6C70A558E23A6EA
:100A7000C70A1316850161866353060403A6870A15
:100A80003366060123A4C70A0100010003A6870AF2
:100A900005070605558E23A4C70A1377F70F1375AC
:100AA000F50FE393E5FC03A7C70A558F23A6E70AD2
:100AB00003A7C70A9166558F23A6E70A828003A67B
:100AC000C70A3366060123A6C70A7DBF411122C4A7
:100AD000371400400327C40A26C285644AC006C6EC
:100AE000458F2A892326E40A010091451305000851
:100AF000BD37A1454A85A5378327840AC58F23249E
:100B0000F40A0100B2402244924402494101828029
:100B10007D159317150017050000130525633E95F5
:100B2000034805009707000093878763BE9583C736
:100B3000050013561800138781803A961378180021
:100B400003451500830606009395470063140800CB
:100B500093F5F700CD8E2300D600935615003697F7
:100B600005898346070011C5C19BD58F2300F70077
:100B700082809183DDBF411122C406C693174501CF
:100B80002A84C54563C707009317350163D007065C
:100B9000C9450545B53F814705489708000093883A
:100BA000685913838180170E0000130E6E592D456E
:100BB0003317F800618F05C73387F80083450700B6
:100BC000B306FE0083C6060013D615001A96858963
:100BD0000307060095C19206558F2300E60085079E
:100BE000E398A7FCB240224441018280931725017B
:100BF000CD45E3D207FA71BFBD8AF9BF93878180E3
:100C000023A0070023A2070023A4070023A60700B0
:100C1000828001119307F6FF4EC606CEB68922CC1C
:100C200026CA4AC893F7F70F9D4663EBF600AA84DD
:100C30002E843285B387C50019CB2147635BF70249
:100C4000F2406244D2444249B2490561828025475C
:100C5000E348F7FE2A941374F40F6314A402E381AB
:100C600009FE6244F240D24442494E85B2490561D0
:100C700019B713091600C1451379F90F513D4A857B
:100C8000D1BF83C50400130915001379F90F493545
:100C900085044A85D9B7371700408327C70A856678
:100CA0004111D58F06C62326F70A8D451305000A84
:100CB0007D3399450145653393868180B7170040A0
:100CC0000963916537160040896E138E818103C5D3
:100CD0000600214703A8C70A3368680023A6070B4C
:100CE00013781500630F080403A8870A3368B80057
:100CF00023A4070B0100010003A8870A7D171377BF
:100D0000F70F3368680023A4070B9388870A0581CF
:100D100071F30327C60A85063367D7012326E60A3F
:100D20000327C60A4D8F2326E60AE392C6FB83A754
:100D3000870A0567D98F23A0F8000100B24041015E
:100D4000828003A8C70A3368B80023A6070B5DB7E3
:100D5000411106C66535B240410135BF79714ECEAD
:100D600056CA06D622D426D24AD052CCA947AE893A
:100D7000B28A6385F600C147639AF60C894763E738
:100D8000370D635005063305A0406380090285478F
:100D9000054915446399F900994789A88547014990
:100DA00019446394F9049D4791A005491D44E5BF8A
:100DB000A284B5C5B304B4402686D2955285552C7D
:100DC00093F4F40FA9A81D3D33069440094433461B
:100DD00086024A87D686A685528505061376F60FC3
:100DE000A5A0E39D09FA01492144A147130A810006
:100DF000D2973367D502FD172380E7003345D5022C
:100E0000E319FAFE814503C707005DF3850593F5F5
:100E1000F50F8507E319B4FE23040100854493FA16
:100E2000EAFFE38209FAD93B13061400058E4A87CC
:100E3000D6861376F60FA6855285E13B0147854697
:100E40001D46CE8533058A00E933B135B2502254B0
:100E500092540259F249624AD24A45618280011194
:100E600022CC371400408327840A4EC6856906CEFB
:100E700026CA4AC8B3E737012324F40A8D4505651D
:100E8000BD208327840A09698D45B3E72701232400
:100E9000F40A0965A9280326840A91648D45458EC4
:100EA0002324C40A1165A1208326840A1305200582
:100EB000B3E636012324D40A0327840A33672701C3
:100EC0002324E40A8327840AC58F2324F40AFD3EE1
:100ED00013050003E53E0145D53E0945C53E624484
:100EE000F240D2444249B24919450561C5B691471D
:100EF00063EEB702170700001307C7278A05BA95E4
:100F00009C41BA978287B717004003A7470B134548
:100F1000F5FF698F23AAE70A03A7070B698F23A8A8
:100F2000E70A03A7070A798D23A0A70A8280B717CB
:100F3000004083A6470B1347F5FFF98E23AAD70A73
:100F400083A6070B558D23A8A70A83A6070A758FCA
:100F500023A0E70A8280B717004003A7470B498FF9
:100F600023AAE70A03A7070B1345F5FF45BFB717E9
:100F7000004083A6470B1347F5FF758F23AAE70AA6
:100F800003A7070A598D4DB7B717004003A7470BB2
:100F9000498FEDB7B71700408847420541819377E5
:100FA000050491EB9377F5013755E80113050580AA
:100FB0003345F50282809377050C1307000463978D
:100FC000E7009377F50137459C1CCDB721651305E4
:100FD00005D08280B7270040C8C709472380E700B3
:100FE00011472380E7008280411122C406C62A846B
:100FF00055372947B307E502B2408D83B3D787023F
:1010000022449507B3D7E70237470040C207C183A0
:101010002316F7C041018280716541111305052037
:1010200006C6D937B7470040130770F82381E7C0D9
:101030000D47A381E7C013070004A380E7C005475D
:101040002387E7C0B24041018280B7470040214773
:10105000B746004091E1828003C6B7C0E30CC7FEEB
:1010600005050346F5FFFD15C2052384C6C0C181F1
:10107000D5B7B3C7A5008D8B3307C50081E78D4772
:1010800063EEC700AA876370E50A83C6050085077B
:101090008505A38FD7FEE3EAE7FE828093763500CD
:1010A000AA8791CA83C6050085078505A38FD7FE49
:1010B00093F63700FDB79376C7FF138606FE63F0FD
:1010C000C70683A3050083A2450083AF850003AF55
:1010D000C50083AE050103AE450103A3850183A8C6
:1010E000C5019385450223A0770003A8C5FF23A26D
:1010F000570023A4F70123A6E70123A8D70123AAB9
:10110000C70123AC670023AE17019387470223AEC4
:1011100007FF75B790419107910523AEC7FEE3EB3A
:10112000D7FEE3E4E7F68280544D524F4B000000B7
:10113000121D1D1D1E1A1C1E1E010300080104089D
:1011400001080802040808000001020304050D0E4E
:101150000F101112131A1B1C1D1E00007D603E7A19
:10116000635B5F707F7B774F1D6E1F170237056DC6
:1011700096FDFFFFBEFDFFFFE6FDFFFFFEFDFFFF4B
:0411800018FEFFFF57
:00000001FF
