:040000006F009008F5
:100004000000000000000000900000206A030020AF
:10001400A9BDF9F5900000200000000000000000D8
:10002400900000209000002000000000000000006C
:10003400900000200000000090000020000000005C
:10004400180D000090000020900000209000002077
:10005400900000209000002090000020000000008C
:10006400900000209000002090000020FE0D000071
:1000740090000020900000209000002090000020BC
:100084009000002090000020400D0000900000200F
:1000940001A073270080218B9387C18009CB73272C
:1000A400008023A6E18098435D9B731007800100C4
:1000B400010037170040930670052300D704930608
:1000C40080FA2300D704010001008346B70493F6A5
:1000D400F60DA305D70423000704F32600809843F4
:1000E400218B558F7310078023A601800100010026
:1000F40013770502630F071073270080218B09CB48
:100104007327008023A6E18098435D9B73100780CA
:100114000100010037170040930670052300D7043F
:10012400930680FA2300D70401000100B7061400E7
:100134007D89558D08C701000100010001002300DD
:100144000704F32600809843218B558F7310078092
:1001540023A601800100010073270080218B09CBB5
:100164007327008023A6E18098435D9B731007806A
:100174000100010037170040930670052300D704DF
:10018400930680FA2300D704010001000100010056
:10019400B726004013061005A383C6802300070476
:1001A400F32600809843218B558F7310078023A674
:1001B40001800100010073270080218B09CB732784
:1001C400008023A6E18098435D9B731007800100A3
:1001D400010037170040930670052300D7049306E7
:1001E40080FA2300D704010001008346B70493E694
:1001F4000608A305D70423000704732700809C4343
:10020400A18BD98F7390078023A601800100010080
:1002140082801377050455C373270080218B09CB93
:100224007327008023A6E18098435D9B73100780A9
:100234000100010037170040930670052300D7041E
:10024400930680FA2300D70401000100B7061400C6
:10025400938606047D89558D08C7010001000100BD
:10026400010023000704F32600809843218B558F57
:100274007310078023A6018001000100732700800A
:10028400218B09CB7327008023A6E18098435D9BD3
:1002940073100780010001003717004093067005B2
:1002A4002300D704930680FA2300D7040100010039
:1002B400B726004013062005C5B573270080218B9F
:1002C40009CB7327008023A6E18098435D9B7310BC
:1002D40007800100010037170040930670052300D2
:1002E400D704930680FA2300D704010001001447C1
:1002F40093E6060C14C75DB541118146014681455C
:10030400114506C6192CF3270080A18B9386C18062
:1003140089CBF327008023A6F1809C42DD9B739058
:10032400078001000100B717004013077005238000
:10033400E704130780FA2380E7040100010003C7E0
:100344006704136717002383E704238007047327D4
:1003540000809C42A18BD98F7390078023A60180D3
:1003640001000100B240410182808146014681457D
:1003740011456522F3270080A18B1387C18089CBA7
:10038400F327008023A6F1801C43DD9B7390078034
:1003940001000100B7170040930670052380D704BD
:1003A400930680FA2380D70401000100FD562396AA
:1003B400D70223800704F32600801C43A18BD58F2A
:1003C4007390078023A6018001000100F3270080B9
:1003D400A18B89CBF327008023A6F1801C43DD9BEE
:1003E4007390078001000100B71700409306700561
:1003F4002380D704930680FA2380D70401000100E8
:1004040083C6670493E616002383D7042380070476
:10041400F32600801C43A18BD58F7390078023A6FD
:1004240001800100010001A0BD473305F502010070
:100434007D1575FD8280411122C426C206C6AA8498
:10044400014463179400B2402244924441018280E3
:1004540005041305803E4204C13F4180DDB72303F8
:10046400048015472303E48001002302A4808280D2
:1004740083076480E3CE07FE23030480828083071E
:100484006480E3CE07FE0345448082808307648052
:10049400E3CE07FE2302A4808280411126C44AC20F
:1004A4004EC006C61377F50BAD47AA892E8995442D
:1004B4006306F70019456537653F8D444E8545371A
:1004C400FD59FD1463983401B240A2441249824993
:1004D40041018280135509011375F50F453F220927
:1004E400CDB7011126CC06CEB70408005137154507
:1004F400BD37713769372AC6A53F32459377150052
:1005040089EB136515001375F50FF240E24405619C
:100514008280FD14E9FC0145CDBF397126DC4ADA3D
:100524004ED852D656D45AD25ED006DE62CE66CCAF
:10053400B7E700E07D5783AA070022C603AA470055
:1005440023A0E71823A2E718B71700401307700584
:100554002380E704130780FA2380E70483C7470452
:10056400930B75FFB684E20793FBFB0F8546AA89BC
:100574002E8B328937240040E187015763FA7601D4
:100584006308D5008946130700026313D500015799
:10059400D98F93F7F70FB71C00402382FC0411474F
:1005A4002303E4801305F00F5D3D094CD135636DE1
:1005B4007C11B7050700DA9537870700795563F290
:1005C400E504B3879500636EF702370B0800A9476B
:1005D40033EB65016399F90689E48144513D26852D
:1005E4000DA0DA850945553D05090345F9FFFD14BC
:1005F400050B693D81C49377FB0FFDF7DD3569FD7C
:100604007D55B7170040130770052380E7041307CF
:1006140080FA2380E70403C74704418B2382E7045D
:10062400F250B7E700E023A0571123A24711E25488
:1006340032445259C259325AA25A125B825B724CEA
:10064400E24C21618280A5476395F9068569130907
:10065400F00FB3069900B3742B01B6941349F9FF54
:10066400B3749900856B33796901416B9387F9FF02
:10067400B3F7270199E363FC340193D94900C147D7
:10068400E3E637FF99BF0569C1697D19D9B7130539
:10069400800D6388690113050002638479011305E1
:1006A4001008CA85DD3B353D21DD4E99B3843441C4
:1006B400D9B7DA852D45D533CA94E30099F20509F3
:1006C4007D3BA30FA9FED5BF9387F9FF93F7F70FDF
:1006D4006361FC0C83C71C0413073008631FF70411
:1006E40037070800636BEB04B3079B00B7061000E1
:1006F40063F5D704334BEB0089476393F90689808C
:10070400D549E38C04ECDA850945413B11090327FB
:10071400C9FF91472320E48003076480E34E07FE6A
:1007240023033481FD17EDFBFD14110B81C4937772
:10073400FB0FE9FF7D3371F5E1B5B717004003C73F
:100744005704B70708001377070219E3B7870700B0
:100754007955E378FBEA33079B00E3FFE7F855B5E7
:100764008547E382F9F2DA852D45053B9389F4FF49
:10077400E38504E6293393F7390091EB832604805B
:100784000327090093074900E39AE6E43E89CE84EF
:10079400F1BFB5476396F9001305900BC93135BD18
:1007A400B1471305B00AE38BF9FE99476391F90445
:1007B400B7050800B365BB002D45C53181448D4B99
:1007C400A149753963967401832704802320F900B5
:1007D4008504E39834FF8327048013172B016355A2
:1007E40007002312F900D5BB2322F900FDB39D476E
:1007F4006399F90281451305B0044531BD442320B2
:10080400090023220900FD599D3993F77400CA9702
:1008140003C70700FD14398D2380A700E39634FF36
:100824006DBBA1476392F9046D398144630D0B00DC
:100834008D479304C0036308FB009304000563041D
:100844008B01930440041375C507E30895D8194533
:10085400393139390545213126850D3909453D316F
:100864004931E31C05D669BB91476399F900130527
:100874006006F536F53E130590090DB7E38F09D4EC
:04088400F154A9BBC7
:10088800971100209381018617610020130101F759
:100898001305400097F5FF1F93854576170600203E
:1008A800130606FE63FAC5008322050023A055003F
:1008B80011059105E3EAC5FE171500001305055259
:1008C800970500209385C5FB1386818063FAC500D0
:1008D8008322050023A0550011059105E3EAC5FE12
:1008E80013858180938541D56377B5002320050062
:1008F8001105E36DB5FEFD42739002BC8D42739005
:1009080042809302800873A0023097F2FF1F9382FF
:10091800E26E93E2320073905230970200009382A5
:10092800222473901234730020303D432A87637366
:10093800C3029377F700BDEFADE5937606FF3D8AD6
:10094800BA960CC34CC30CC74CC74107E36BD7FE20
:1009580011E28280B306C3408A0697020000969689
:100968006780A6002307B700A306B7002306B700D1
:10097800A305B7002305B700A304B7002304B700F5
:10098800A303B7002303B700A302B7002302B700ED
:10099800A301B7002301B700A300B7002300B700E5
:1009A800828093F5F50F93968500D58D9396050172
:1009B800D58D61B793962700970200009696868298
:1009C800E78086FA9680C1171D8F3E96E374C3F8B8
:1009D800A5B79387818F1307803E23A00700239232
:1009E800E7008280411122C426C206C6835725002B
:1009F80003C605001307603E2A84B386C700AE8489
:100A08006356D7002312F50023110500035524006F
:100A1800A685090619052295EF00407703C704004B
:100A280083572400B2409244BA9789072311F400EF
:100A3800224405454101828083570500035725005C
:100A48006308F70403574500411122C406C62A84E7
:100A58006314F70023100500835704002E8533071D
:100A6800F400030667009907B305F4000906EF00D0
:100A7800E07183570400B24005453307F4000307CB
:100A880067008907BA972310F40022444101828045
:100A980001458280411122C4371400408327840A0B
:100AA80006C6854593E707022324F40A4145212118
:100AB8008D4513050002012131258327840A8545C8
:100AC8001305001093E707202324F40AED268D452B
:100AD80013050020CD26DD2901451523854505454B
:100AE800252BB707000837E400E02320F410014560
:100AF800192585450545292D91472322F410B24033
:100B08002244410182804111A945171500001305AF
:100B1800651606C61D251385A1CE83C581CE312D48
:100B2800B24005454101828003470500A94763F5A6
:100B3800E70283462500130680068147639CC600AA
:100B4800034695006318D6003A9583471500A91700
:100B580093B717003E8582808147EDBF75711305F5
:100B6800800406C722C526C34AC1CEDED2DCD6DA47
:100B780097F0FF1FE780A051313F994517150000F6
:100B8800130505107D29138481CEA1351389818F22
:100B98008949054A8D4A9714000093846418A285F0
:100BA8004A85593D6DDD83C791CE639C3709A13FC6
:100BB80013064003A2850A85D12B0A85B53715C1CE
:100BC8009545171500001305250C852BB5451715F8
:100BD80000001305E50B952383C581CE1385A1CEAF
:100BE80071A003C7A1CE930710046316F70403C7C7
:100BF800B1CE930740056310F70403C7C1CE93072E
:100C0800B002631AF7029545171500001305C507CA
:100C18002D23B1451715000013058508392B91457B
:100C2800171500001305C508092B83C581CE138548
:100C3800A1CE0129ADB7CD45171500001305C5078D
:100C480059BF639D470713064003A2850A853D2BBC
:100C58000A85D93D11CD954517150000130545079F
:100C6800E929B5451715000013050507F92105BF42
:100C780003C7A1CE93071004631EF70003C7B1CEC4
:100C8800930740056318F70003C7C1CE9307B00266
:100C98006308F700AD45171500001305E50425BFE7
:100CA800954517150000130525FE4129B14517156F
:100CB800000013052504512195459DB763975705F5
:100CC80013064003A2850A85D1210A85B13DE308B0
:100CD80005EC83C681CE171600001306A6029305FD
:100CE8008002A800B92BA800F12393150501C18142
:100CF800A800812E83C581CE1385A1CE99269D4556
:100D0800171500001305450195B7A5452685B9BFF8
:100D1800B727004083C76700858B91CF9387818071
:100D28009C436355F000FD1723A4F180B7270040CA
:100D380005472383E700828037470040834747C041
:100D48009946BD8B638AD702797122D626D44AD2B6
:100D58004ED052CE56CC31476385E7001147639396
:100D6800E7089304803E0144374A004005499389C7
:100D7800C181938A01832DA8834757C0730020300F
:100D88004E85C5261375F50FA307A1000346F1008C
:100D980033858A00CE85DD2E8347F100FD143E940D
:100DA8001374F40F23AE018023A0018223920182E1
:100DB800E1F883475AC0E305F9FC2286938501834D
:100DC8001385E1D1238E81D0A38E21D1C1269385AD
:100DD800C1D11385818F39311306800C8145138564
:100DE8000183A1363254A25412598259724AE24AF6
:100DF80045617300203037370040834747409946A4
:100E0800BD8B638AD702797122D626D44AD24ED0B6
:100E180052CE56CC31476385E70011476394E70803
:100E28009304803E0144373A004085491389C181C3
:100E3800938A01832DA883475740730020304A8541
:100E48002D241375F50FA307A1000346F100338580
:100E58008A00CA85252E8347F100FD143E94137439
:100E6800F40F23AE018023A0018223920182E1F8CE
:100E780083475A40E385F9FC238E81D0894722862F
:100E8800938501831385E1D1A38EF1D00126938543
:100E9800C1D11385818FB9361306800C814513851E
:100EA800018361343254A25412598259724AE24A77
:100EB800456173002030914763EEB70217170000B1
:100EC8001307C7E68A05BA959C41BA978287B71770
:100ED800004003A7470B1345F5FF698F23AAE70ACC
:100EE80003A7070B698F23A8E70A03A7070A798DC9
:100EF80023A0A70A8280B717004083A6470B134791
:100F0800F5FFF98E23AAD70A83A6070B558D23A8C8
:100F1800A70A83A6070A758F23A0E70A8280B71756
:100F2800004003A7470B498F23AAE70A03A7070B2B
:100F38001345F5FF45BFB717004083A6470B134776
:100F4800F5FF758F23AAE70A03A7070A598D4DB73E
:100F5800B717004003A7470B498FEDB7B7170040F5
:100F68008847420541819377050491EB9377F50112
:100F78003755E801130505803345F50282809377DC
:100F8800050C130700046397E7009377F5013745CD
:100F98009C1CCDB72165130505D08280411122C460
:100FA80006C62A84653F2947B307E502B2408D8308
:100FB800B3D7870222449507B3D7E70237370040F3
:100FC800C207C1832316F740410182807165411130
:100FD8001305052006C6D937B7370040130770F840
:100FE8002381E7400D47A381E74013070004A3804E
:100FF800E74005472387E740B24041018280373701
:101008000040834727401A0593F7F703C98F93F7E2
:10101800F70F2301F7408280B737004003C7174016
:1010280019C9D98DA380B74003C707401367870044
:101038002380E740828093C5F5FFF98DA380B740F0
:101048008280B73700402147B736004091E182805F
:1010580003C6B740E30CC7FE05050346F5FFFD15BB
:10106800C2052384C640C181D5B78147B736004041
:1010780003C7A6401396070141821377F70F19E3B8
:101088003285828003C686403307F5008507230032
:10109800C700F9BF411122C406C62A84C1352947B1
:1010A800B307E502B2408D83B3D787022244950780
:1010B800B3D7E70237470040C207C1832316F7C0FA
:1010C80041018280716541111305052006C6D93793
:1010D800B7470040130770F82381E7C00D47A38185
:1010E800E7C013070004A380E7C005472387E7C0CC
:1010F800B2404101828037470040834727C01A0524
:1011080093F7F703C98F93F7F70F2301F7C082808E
:10111800B747004003C717C019C9D98DA380B7C006
:1011280003C707C0136787002380E7C0828093C581
:10113800F5FFF98DA380B7C08280B74700402147EB
:10114800B746004091E1828003C6B7C0E30CC7FEF2
:1011580005050346F5FFFD15C2052384C6C0C181F8
:10116800D5B78147B746004003C7A6C01396070105
:1011780041821377F70F19E33285828003C686C050
:101188003307F50085072300C700F9BFB3C7A500DB
:101198008D8B3307C50081E78D4763EEC700AA87AB
:1011A8006370E50A83C6050085078505A38FD7FE0A
:1011B800E3EAE7FE828093763500AA8791CA83C660
:1011C800050085078505A38FD7FE93F63700FDB781
:1011D8009376C7FF138606FE63F0C70683A3050050
:1011E80083A2450083AF850003AFC50083AE050128
:1011F80003AE450103A3850183A8C5019385450274
:1012080023A0770003A8C5FF23A2570023A4F70152
:1012180023A6E70123A8D70123AAC70123AC6700A7
:1012280023AE17019387470223AE07FF75B7904196
:101238009107910523AEC7FEE3EBD7FEE3E4E7F69B
:10124800828035713ECBA6DA36C73AC942CD46CF41
:1012580097F7FF1F9387076986DEA2DC844363DB69
:1012680005009307B0089CC07D55F6506654D654C7
:101278000D61828093078020231AF1002AC42ACCAA
:10128800814799C19387F5FF3EC83ECE7401FD574B
:101298002E8426852C00231BF10036C27924FD57A5
:1012A8006355F5009307B0089CC061D0A24723801E
:1012B800070065BFAA87850703C7F7FF6DFF33855A
:1012C800A7407D158280DDC183A7C5FF411122C4D7
:1012D80006C626C21384C5FF63D307003E94AA84BA
:1012E800EF001010938701819C4381EF23220400B3
:1012F80023A881802244B2402685924441016F0090
:10130800500E637EF40014403307D4006396E70060
:101318009843DC43369718C05CC0D9BFBA87D84316
:1013280019C3E37DE4FE94433386D700631F860028
:101338001040B29694C33386D700E31DC7FA104312
:101348005843B29694C3D8C375B76375C400B14700
:101358009CC04DB71040B306C4006316D7001443B1
:101368005843B29614C058C0C0C369B782800111EF
:1013780026CA93843500F19806CE22CC4AC84EC6B8
:10138800A104B14763F5F404B14463E4B4042A89C1
:10139800EF0010059387018198433A8429E49387E5
:1013A80041819C4399E781454A85EF00A07A23AAA9
:1013B800A180A6854A85EF00E079FD5963193507B4
:1013C800B1472320F9004A85EF00B00129A0E3DEE8
:1013D80004FAB1471CC10145F2406244D244424973
:1013E800B249056182801C40858F63CF0702AD46F4
:1013F80063F6F6001CC03E9404C031A05C40631341
:10140800870223A8F1804A85EF00A07D1305B40068
:101418009307440061993307F5405DDF3A94898F5B
:101428001CC05DBF5CC3C5B72287404085BF13049D
:1014380035007198E30285FCB305A4404A85192F4D
:10144800E31C35FBB5BF01114AC803A9850022CCAE
:1014580052C45AC006CE26CA4EC656C22E84328BF5
:10146800368A63EC260983D7C50013F7074841C7B6
:1014780004408C495848AA8AB389B4408D44B3843F
:10148800E4020947B3C4E402138716004E9763F3D6
:10149800E400BA8493F70740C1C3A6855685C13DC9
:1014A8002A890DE5B14723A0FA008357C4007D556A
:1014B80093E707042316F400F2406244D2444249F9
:1014C800B249224A924A024B056182800C484E86F4
:1014D80075398357C40093F7F7B793E707082316BE
:1014E800F4002328240144C84E99B38434412320AE
:1014F800240104C4528963732A01528908404A8628
:10150800DA85512D1C440145B38727411CC41C4072
:101518003E99232024014DB726865685E1252A8940
:1015280069F10C4856854533B5BF83D7C50071713D
:1015380026D34AD14ECF06D722D552CD56CB5AC93B
:101548005EC762C566C393F70708AA892E89B28465
:10155800B1C39C49A1E39305000436C6093D232085
:10156800A9002328A900B24615E1B14723A0F90034
:101578007D55BA502A549A540A59FA496A4ADA4A9D
:101588004A4BBA4B2A4C9A4C4D618280930700040F
:10159800232AF90093070002A30CF1029307000322
:1015A80002DA230DF10236CE930B5002970A00009F
:1015B800938A0A7F054C294B26848347040099C3E4
:1015C800639B7709B30C9440638D0C00E6862686EE
:1015D800CA854E858D3DFD576301F51AD256E696AC
:1015E80036DA83470400638A0718FD57930414000A
:1015F80002D002D63ED202D4A301010682DC83C502
:101608000400154656859D2B13841400825731E536
:1016180013F7070109C713070002A301E10613F72F
:10162800870009C71307B002A301E10683C60400B7
:101638001307A002638BE602B2572684814625462B
:101648000347040093051400130707FD6374E606B7
:101658008DC63ED61DA005048DB7330555413315FB
:10166800AC00C98F3ED0A28459BF72479306470089
:10167800184336CE634907023AD603470400930756
:10168800E002631FF704034714009307A002631BDB
:10169800F702F2470904138747009C433ACE63C117
:1016A80007023ED235A83307E04093E727003AD631
:1016B8003ED0E1B7B387670385462E84BA9749B70A
:1016C800FD57C5B7050402D2814681472546034721
:1016D800040093051400130707FD6376E606F1F28C
:1016E800834504000D46170500001305E56B7921B5
:1016F80011CD970700009387276B1D8D9307000472
:10170800B397A700025505045D8D2AD083450400D0
:101718001946170500001305656993041400230C86
:10172800B102A92925C597F7FFFF9387278D95E76C
:101738000257F2471377071009CF91073ECED257C9
:10174800D2973EDA95BDB387670385462E84BA974C
:10175800BDBF9D07E19BA107D5B778089706000094
:101768009386A6CE4A860C104E8597000000E700A7
:101778000000FD572A8AE314F5FC8357C9007D55FC
:1017880093F70704E39707DE5255E5B37808970601
:101798000000938686CB4A860C104E85012AD1BF5D
:1017A800797156CA9C49BA8A984522D426D24ECE17
:1017B80052CC06D64AD05AC85EC6AA892E84B284AC
:1017C800368A63D3E700BA879CC00347340419C339
:1017D80085079CC01C4093F7070281C79C40890776
:1017E8009CC00329040013796900631A0900130BCC
:1017F8009401FD5B5C449840998F634CF9041C404C
:101808008346340493F70702B336D000A5EB1306DA
:101818003404D2854E85829AFD576303F5041C4033
:1018280011469840998B544481446397C700B38408
:10183800E64063D3040081441C4418486354F7000D
:10184800998FBE94014969047D5B6398240501451D
:1018580009A885465A86D2854E85829A631E7501E7
:101868007D55B250225492540259F249624AD24AE2
:10187800424BB24B456182800509ADBF3307D400A6
:1018880013060003A301C7040347540493871600F3
:10189800A2978906A381E7049DBF85462286D28543
:1018A8004E85829AE30E65FB050945B7797122D406
:1018B80026D24AD04ECE06D652CC56CA5AC8B68977
:1018C80083C68501930790063289AA842E841386DD
:1018D8003504638DF60263E2D706930780056387B4
:1018E800F61863EDD7006380062293073004638EF1
:1018F800F60A930A24042301D404C9A093073006E6
:101908006385F60A93074006E395F6FE1C400843F4
:1019180093F6070893054500C5C61C410CC363D858
:1019280007001307D002B307F040A301E4049706A9
:1019380000009386264829476DA89307000763830C
:10194800F61663E5D7029307E006638AF61893074D
:10195800F006E390F6FA0C401C4313F805081385CB
:1019680047006307080608C39C438DA893075007E0
:10197800E383F6FE93078007638AF612930730071E
:10198800E399F6F61C43D04181459386470014C37A
:1019980083AA07005685DD2201C53305554148C095
:1019A8005C401CC8A301040471A81C43930A2404C6
:1019B800938647009C4314C32301F4048547D5B795
:1019C80093F607041C410CC3B9DAC207C18781BF6B
:1019D80093F5050408C3C9D983D707001307F00690
:1019E8006387E60E970600009386C63C2947A30145
:1019F80004044C400CC463C5050008406D9908C038
:101A080099E3B28A91CDB28AB3F5E702FD1AB69589
:101A180083C505002380BA00B3D5E70263FFE70A50
:101A2800A147631EF7001C40858B91CB58401C488A
:101A380063C7E70093070003A38FFAFEFD1A330676
:101A4800564110C84E87CA867000A2852685893BF4
:101A58007D5A631E450B7D55B2502254925402594B
:101A6800F249624AD24A424B45618280A382D50438
:101A780097060000938606340C40084313F80508BF
:101A88001C411105630D080208C313F7150001C7AF
:101A980093E505020CC04147B9FB0C4093F5F5FDF1
:101AA8000CC0B1B79C4193E707029CC1930780071C
:101AB800A302F404970600009386063175BF13F855
:101AC800050408C3E30308FCC207C1837DBF97066A
:101AD80000009386262E214719BFAE8735B794415B
:101AE8001C43CC4913F80608138547006306080011
:101AF80008C39C438CC301A808C393F606049C43FF
:101B0800F5DA2390B70023280400B28A25BF1448C9
:101B18005686CA8526858299E30F45F31C40898B32
:101B28008DE7B2474844E359F5F23E8535B7854617
:101B38005686CA8526858299E30F65F1050A5C44B5
:101B48003247998FE345FAFEE9BF014A930A9401A7
:101B58007D5BF5B7411122C42A842E8523A801D4C0
:101B680006C6FD20FD576317F500938701D59C43F2
:101B780091C31CC0B24022444101828093F5F50F05
:101B88002A966314C5000145828083470500E38DCA
:101B9800B7FE0505FDB763F3A504B386C500637FEB
:101BA800D5029345F6FF8147FD176393F5008280C0
:101BB8003387F600034807003387C7002A972300B6
:101BC8000701DDB73387F500834607003307F500C3
:101BD80085072300D700E317F6FE82808147E5BF1B
:101BE8008280828081E5B2856FF06FF8011122CC86
:101BF80006CE26CA4AC84EC6328401EEEFF0AFECD4
:101C08000149F24062444A85D2444249B2490561D9
:101C18008280AE84AA891D202689E37485FEA28568
:101C28004E85EFF0CFF42A8969DDA6852286EFF08C
:101C3800EFD5A6854E85EFF00FE9E1B783A7C5FF7D
:101C48001385C7FF63D50700AA959C413E958280FE
:101C5800938781819C4391C73E9523ACA1803E85A3
:101C68008280938741D53E9523ACA1803E858280B2
:101C780041545F524553504F4E3A0000415445304D
:101C88000D0A0000532D3E433A00000069733634B4
:101C9800357365727665720D0A00000069734154E8
:101CA8007365727665720D0A00000000432D3E4D83
:101CB8003A0000006D6F64656D5F726573706F6EDA
:101CC800655F6D73673A0D0A00000000432D3E56AC
:101CD8003A000000697336343553657269616C0DDA
:101CE8000A0000006F746865725F6D73670D0A0003
:101CF8006973415453657269616C0D0A00000000F4
:101D080041542B514953454E443D302C25640D0A0E
:101D180000000000432D3E4D2D3E53004E4F3634FB
:101D28003541540D0A000000A6F1FFFFCEF1FFFF78
:101D3800F6F1FFFF0EF2FFFF28F2FFFF00000000A0
:101D4800000000000000000000000000000000008B
:101D5800000000000000000000000000000000007B
:101D6800000000000000000000000000000000006B
:101D7800000000000000000000000000000000005B
:101D8800000000000000000000000000000000004B
:101D9800000000000000000000000000232D302B90
:101DA80020000000686C4C006566674546470000E7
:101DB8003031323334353637383941424344454679
:101DC800000000003031323334353637383961623B
:081DD800636465660000000071
:101DE00000000000641D0000841D0000441D000070
:101DF00000000000000000000000000000000000E3
:101E000000000000000000000000000000000000D2
:101E100000000000000000000000000000000000C2
:101E200000000000000000000000000000000000B2
:101E300000000000000000000000000000000000A2
:0C1E4000000000008408002000000000EA
:00000001FF
