:040000006F00D00DB0
:10000400000000000000000090000020AA0300206F
:10001400A9BDF9F5900000200000000000000000D8
:10002400900000209000002000000000000000006C
:10003400900000200000000090000020000000005C
:1000440090000020900000209000002090000020EC
:10005400900000209000002090000020000000008C
:1000640090000020900000209000002090000020CC
:1000740090000020900000209000002090000020BC
:100084009000002090000020880B000090000020C9
:1000940001A073270080218B9717000093870784A2
:1000A40019CB732700809716000023A9E682984392
:1000B4005D9B731007800100010037170040930611
:1000C40070052300D704930680FA2300D7040100A7
:1000D40001008346B70493F6F60DA305D704230065
:1000E4000704F32600809843218B558F73100780F3
:1000F400170700002324077E01000100137705027F
:10010400630B071273270080218B19CB73270080A0
:100114009706000023A4E67C98435D9B7310078038
:100124000100010037170040930670052300D7042F
:10013400930680FA2300D70401000100B7061400D7
:100144007D89558D08C701000100010001002300CD
:100154000704F32600809843218B558F7310078082
:1001640017070000232C0776010001007327008085
:10017400218B19CB732700809706000023A0E67615
:1001840098435D9B731007800100010037170040FE
:10019400930670052300D704930680FA2300D7043E
:1001A4000100010001000100B726004013061005FC
:1001B400A383C68023000704F32600809843218B81
:1001C400558F73100780170700002329077001005B
:1001D400010073270080218B19CB732700809706B9
:1001E400000023ADE66E98435D9B73100780010009
:1001F400010037170040930670052300D7049306C7
:1002040080FA2300D704010001008346B70493E673
:100214000608A305D70423000704732700809C4322
:10022400A18BD98F739007809707000023A8076AD2
:100234000100010082801377050445CB73270080F9
:10024400218B19CB732700809706000023A8E6684A
:1002540098435D9B7310078001000100371700402D
:10026400930670052300D704930680FA2300D7046D
:1002740001000100B7061400938606047D89558D9C
:1002840008C7010001000100010023000704F32650
:1002940000809843218B558F731007801707000047
:1002A400232E07620100010073270080218B19CBE4
:1002B400732700809706000023A2E66298435D9BA3
:1002C4007310078001000100371700409306700582
:1002D4002300D704930680FA2300D7040100010009
:1002E400B726004013062005E1B573270080218B53
:1002F40019CB732700809706000023A1E65E98437C
:100304005D9B7310078001000100371700409306BE
:1003140070052300D704930680FA2300D704010054
:100324000100144793E6060C14C769B541118146D0
:1003340001468145114506C61D2CF3270080A18B7B
:10034400970600009386865999CBF32700801707F8
:1003540000002325F7589C42DD9B73900780010021
:100364000100B7170040130770052380E704130743
:1003740080FA2380E7040100010003C767041367C0
:1003840017002383E70423800704732700809C421B
:10039400A18BD98F739007809707000023A007547F
:1003A40001000100B240410182808146014681453D
:1003B4001145752AF3270080A18B17070000130746
:1003C400E75199CBF32700809706000023A8F65045
:1003D4001C43DD9B7390078001000100B7170040A8
:1003E400930670052380D704930680FA2380D704EC
:1003F40001000100FD562396D70223800704F3264B
:1004040000801C43A18BD58F739007809707000051
:1004140023A6074C01000100F3270080A18B99CB90
:10042400F32700809706000023AAF64A1C43DD9BAD
:100434007390078001000100B71700409306700510
:100444002380D704930680FA2380D7040100010097
:1004540083C6670493E616002383D7042380070426
:10046400F32600801C43A18BD58F739007809707D8
:10047400000023A507460100010001A0BD47330584
:10048400F50201007D1575FD8280411122C426C24A
:1004940006C6AA84014463179400B24022449244DD
:1004A4004101828005041305803E4204C13F41801E
:1004B400DDB72303048015472303E48001002302EE
:1004C400A480828083076480E3CE07FE2303048034
:1004D400828083076480E3CE07FE034544808280E4
:1004E40083076480E3CE07FE2302A4808280411147
:1004F40026C44AC24EC006C61377F50BAD47AA8977
:100504002E8995446306F70019456537653F8D4488
:100514004E854537FD59FD1463983401B240A24419
:100524001249824941018280135509011375F50F5F
:10053400453F2209CDB7011126CC06CEB7040800E9
:1005440051371545BD37713769372AC6A53F32453E
:100554009377150089EB136515001375F50FF240B9
:10056400E24405618280FD14E9FC0145CDBF397187
:1005740026DC4ADA4ED852D656D45AD25ED006DE9B
:1005840062CE66CCB7E700E07D5783AA070022C697
:1005940003AA470023A0E71823A2E718B7170040CF
:1005A400130770052380E704130780FA2380E70408
:1005B40083C74704930B75FFB684E20793FBFB0FD5
:1005C4008546AA892E8B328937240040E18701575A
:1005D40063FA76016308D5008946130700026313A2
:1005E400D5000157D98F93F7F70FB71C004023822A
:1005F400FC0411472303E4801305F00F5D3D094C0F
:10060400D135636D7C11B7050700DA95378707008C
:10061400795563F2E504B3879500636EF702370BEF
:100624000800A94733EB65016399F90689E481441D
:10063400513D26850DA0DA850945553D050903453B
:10064400F9FFFD14050B693D81C49377FB0FFDF79A
:10065400DD3569FD7D55B71700401307700523800C
:10066400E704130780FA2380E70403C74704418B98
:100674002382E704F250B7E700E023A0571123A236
:100684004711E25432445259C259325AA25A125BA7
:10069400825B724CE24C21618280A5476395F90626
:1006A40085691309F00FB3069900B3742B01B6944E
:1006B4001349F9FFB3749900856B33796901416B70
:1006C4009387F9FFB3F7270199E363FC340193D9C6
:1006D4004900C147E3E637FF99BF0569C1697D1940
:1006E400D9B71305800D638869011305000263847B
:1006F400790113051008CA85DD3B353D21DD4E998E
:10070400B3843441D9B7DA852D45D533CA94E3008F
:1007140099F205097D3BA30FA9FED5BF9387F9FF85
:1007240093F7F70F6361FC0C83C71C0413073008AD
:10073400631FF70437070800636BEB04B3079B00E0
:10074400B706100063F5D704334BEB008947639376
:10075400F9068980D549E38C04ECDA850945413BE7
:1007640011090327C9FF91472320E480030764800C
:10077400E34E07FE23033481FD17EDFBFD14110B3B
:1007840081C49377FB0FE9FF7D3371F5E1B5B717AA
:10079400004003C75704B70708001377070219E39B
:1007A400B78707007955E378FBEA33079B00E3FF3B
:1007B400E7F855B58547E382F9F2DA852D45053B1F
:1007C4009389F4FFE38504E6293393F7390091EB29
:1007D400832604800327090093074900E39AE6E48B
:1007E4003E89CE84F1BFB5476396F9001305900B9B
:1007F400C93135BDB1471305B00AE38BF9FE9947FA
:100804006391F904B7050800B365BB002D45C531F4
:1008140081448D4BA1497539639674018327048003
:100824002320F9008504E39834FF832704801317F9
:100834002B01635507002312F900D5BB2322F900CD
:10084400FDB39D476399F90281451305B004453111
:10085400BD442320090023220900FD599D3993F743
:100864007400CA9703C70700FD14398D2380A700BD
:10087400E39634FF6DBBA1476392F9046D3981445B
:10088400630D0B008D479304C0036308FB009304BE
:10089400000563048B01930440041375C507E30842
:1008A40095D81945393139390545213126850D3910
:1008B40009453D314931E31C05D669BB914763992C
:1008C400F90013056006F536F53E130590090DB7DA
:0808D400E38F09D4F154A9BB24
:1008DC00970100209381C17F176100201301C1F1A2
:1008EC001305400097F5FF1F93850571170600202F
:1008FC00130606FE63FAC5008322050023A05500EB
:10090C0011059105E3EAC5FE170500001305C55E48
:10091C00970500209385C5FB17060020130646FBA0
:10092C0063FAC5008322050023A05500110591052B
:10093C00E3EAC5FE17050020130585F9938501D35D
:10094C006377B500232005001105E36DB5FEFD426C
:10095C00739002BC8D42739042809302800873A006
:10096C00023097F2FF1F9382226993E23200739058
:10097C005230970200009382E21973901234730084
:10098C0020303D432A876373C3029377F700BDEF92
:10099C00ADE5937606FF3D8ABA960CC34CC30CC7E3
:1009AC004CC74107E36BD7FE11E28280B306C3400C
:1009BC008A069702000096966780A6002307B70068
:1009CC00A306B7002306B700A305B7002305B7009D
:1009DC00A304B7002304B700A303B7002303B70095
:1009EC00A302B7002302B700A301B7002301B7008D
:1009FC00A300B7002300B700828093F5F50F939600
:100A0C008500D58D93960501D58D61B793962700FA
:100A1C009702000096968682E78086FA9680C11728
:100A2C001D8F3E96E374C3F8A5B79387818D13078A
:100A3C00803E23A007002392E7008280411122C44C
:100A4C0026C206C64AC00357250083C70500930675
:100A5C00603E2A84BA97AE8463D6F6002312E50072
:100A6C0023110500130924004A8589458D26130599
:100A7C0044008945A92E4A858945912E03552400A9
:100A8C0003C60400A685190522950906512E03C735
:100A9C00040083572400B2409244BA97890723116B
:100AAC00F400224402490545410182808357050028
:100ABC0003572500630CF70403574500411106C684
:100ACC0022C426C26314F70023100500AE848945A6
:100ADC002A84F52C8357040026853307F40003067B
:100AEC0067009907B305F40009061D2E835704000F
:100AFC00B24092443307F4000307670089070545A9
:100B0C00BA972310F400224441018280014582806F
:100B1C0041111305800406C622C426C24AC097F0B0
:100B2C00FF1FE7808056371700408327870A8545CB
:100B3C00414593E707022324F70A21228D4513052B
:100B4C0000020122112C0145892485450545992C6B
:100B5C00B7E700E0114723A2E710C13D938481CC95
:100B6C001389818D1704000013044437A6854A8528
:100B7C00353F6DDD99452285992CCDBF3747004017
:100B8C00834747C09946BD8B638CD702797122D6B7
:100B9C0026D44AD24ED052CE56CC31476385E7008C
:100BAC0011476397E7089304C0120144374A004089
:100BBC000549970900209389E9D1938A01813DA8C1
:100BCC00834757C0730020304E8535241375F50FBD
:100BDC00A307A1000346F10033858A00CE85892442
:100BEC008347F100FD143E941374F40F9707002013
:100BFC0023A207CE23A4018023960180F1F483471E
:100C0C005AC0E303F9FC2286938501811385E1CF59
:100C1C00238E81CEA38E21CF21249385C1CF138522
:100C2C00818D293D1306800C814513850181913BF3
:100C3C003254A25412598259724AE24A45617300E5
:100C4C002030914763EEB70217070000130787297E
:100C5C008A05BA959C41BA978287B717004003A7BB
:100C6C00470B1345F5FF698F23AAE70A03A7070B68
:100C7C00698F23A8E70A03A7070A798D23A0A70A7F
:100C8C008280B717004083A6470B1347F5FFF98EF8
:100C9C0023AAD70A83A6070B558D23A8A70A83A6D8
:100CAC00070A758F23A0E70A8280B717004003A7B5
:100CBC00470B498F23AAE70A03A7070B1345F5FF38
:100CCC0045BFB717004083A6470B1347F5FF758F39
:100CDC0023AAE70A03A7070A598D4DB7B717004097
:100CEC0003A7470B498FEDB7B7170040884742055C
:100CFC0041819377050491EB9377F5013755E80122
:100D0C00130505803345F50282809377050C130794
:100D1C0000046397E7009377F50137459C1CCDB72A
:100D2C002165130505D08280411122C406C62A8490
:100D3C00653F2947B307E502B2408D83B3D78702DD
:100D4C0022449507B3D7E70237470040C207C18357
:100D5C002316F7C0410182807165411113050520EE
:100D6C0006C6D937B7470040130770F82381E7C090
:100D7C000D47A381E7C013070004A380E7C0054714
:100D8C002387E7C0B2404101828037470040834748
:100D9C0027C01A0593F7F703C98F93F7F70F2301B1
:100DAC00F7C08280B747004003C717C019C9D98D57
:100DBC00A380B7C003C707C0136787002380E7C0B1
:100DCC00828093C5F5FFF98DA380B7C08280B747A9
:100DDC0000402147B746004091E1828003C6B7C06E
:100DEC00E30CC7FE05050346F5FFFD15C20523847C
:100DFC00C6C0C181D5B78147B746004003C7A6C05E
:100E0C001396070141821377F70F19E3328582801D
:100E1C0003C686C03307F50085072300C700F9BF5A
:100E2C00B3C7A5008D8B3307C50081E78D4763EEF3
:100E3C00C700AA876370E50A83C605008507850588
:100E4C00A38FD7FEE3EAE7FE828093763500AA876C
:100E5C0091CA83C6050085078505A38FD7FE93F637
:100E6C003700FDB79376C7FF138606FE63F0C706FF
:100E7C0083A3050083A2450083AF850003AFC500A3
:100E8C0083AE050103AE450103A3850183A8C5010B
:100E9C009385450223A0770003A8C5FF23A2570022
:100EAC0023A4F70123A6E70123A8D70123AAC7018E
:100EBC0023AC670023AE17019387470223AE07FFCD
:100ECC0075B790419107910523AEC7FEE3EBD7FEB2
:100EDC00E3E4E7F682800000726563760D0A000099
:100EEC007AFDFFFFA2FDFFFFCAFDFFFFE2FDFFFF42
:040EFC00FCFDFFFFFB
:00000001FF
